{
  "contractName": "VerifiedV3",
  "abi": [
    {
      "inputs": [],
      "stateMutability": "nonpayable",
      "type": "constructor"
    },
    {
      "anonymous": false,
      "inputs": [
        {
          "indexed": false,
          "internalType": "uint256",
          "name": "id",
          "type": "uint256"
        },
        {
          "indexed": false,
          "internalType": "string",
          "name": "itemName",
          "type": "string"
        },
        {
          "indexed": false,
          "internalType": "string",
          "name": "itemDescription",
          "type": "string"
        }
      ],
      "name": "certCreated",
      "type": "event"
    },
    {
      "inputs": [],
      "name": "certCount",
      "outputs": [
        {
          "internalType": "uint256",
          "name": "",
          "type": "uint256"
        }
      ],
      "stateMutability": "view",
      "type": "function",
      "constant": true
    },
    {
      "inputs": [
        {
          "internalType": "string",
          "name": "_itemName",
          "type": "string"
        },
        {
          "internalType": "string",
          "name": "_itemDescription",
          "type": "string"
        },
        {
          "internalType": "address",
          "name": "_to",
          "type": "address"
        }
      ],
      "name": "requestACert",
      "outputs": [],
      "stateMutability": "payable",
      "type": "function",
      "payable": true
    },
    {
      "inputs": [
        {
          "internalType": "uint256",
          "name": "_id",
          "type": "uint256"
        }
      ],
      "name": "getCertInfo",
      "outputs": [
        {
          "internalType": "address",
          "name": "_issuer",
          "type": "address"
        },
        {
          "internalType": "address",
          "name": "_owner",
          "type": "address"
        },
        {
          "internalType": "string",
          "name": "_itemName",
          "type": "string"
        },
        {
          "internalType": "string",
          "name": "_itemDescription",
          "type": "string"
        },
        {
          "internalType": "uint256",
          "name": "_valid_start",
          "type": "uint256"
        },
        {
          "internalType": "uint256",
          "name": "_valid_end",
          "type": "uint256"
        },
        {
          "internalType": "bool",
          "name": "_valid",
          "type": "bool"
        }
      ],
      "stateMutability": "view",
      "type": "function",
      "constant": true
    },
    {
      "inputs": [
        {
          "internalType": "uint256",
          "name": "_certId",
          "type": "uint256"
        }
      ],
      "name": "ownerOf",
      "outputs": [
        {
          "internalType": "address",
          "name": "",
          "type": "address"
        }
      ],
      "stateMutability": "view",
      "type": "function",
      "constant": true
    },
    {
      "inputs": [
        {
          "internalType": "uint256",
          "name": "_certId",
          "type": "uint256"
        }
      ],
      "name": "isValid",
      "outputs": [
        {
          "internalType": "bool",
          "name": "",
          "type": "bool"
        }
      ],
      "stateMutability": "view",
      "type": "function",
      "constant": true
    },
    {
      "inputs": [
        {
          "internalType": "address",
          "name": "_to",
          "type": "address"
        }
      ],
      "name": "getUserCerts",
      "outputs": [
        {
          "components": [
            {
              "internalType": "uint256",
              "name": "id",
              "type": "uint256"
            },
            {
              "internalType": "address",
              "name": "issuer",
              "type": "address"
            },
            {
              "internalType": "string",
              "name": "itemName",
              "type": "string"
            },
            {
              "internalType": "string",
              "name": "itemDescription",
              "type": "string"
            },
            {
              "internalType": "uint256",
              "name": "valid_start",
              "type": "uint256"
            },
            {
              "internalType": "uint256",
              "name": "valid_end",
              "type": "uint256"
            },
            {
              "internalType": "bool",
              "name": "valid",
              "type": "bool"
            }
          ],
          "internalType": "struct VerifiedV3.Cert[]",
          "name": "",
          "type": "tuple[]"
        }
      ],
      "stateMutability": "view",
      "type": "function",
      "constant": true
    }
  ],
  "bytecode": "0x6080604052600060015534801561001557600080fd5b50336000806101000a81548173ffffffffffffffffffffffffffffffffffffffff021916908373ffffffffffffffffffffffffffffffffffffffff160217905550611323806100656000396000f3fe6080604052600436106100555760003560e01c80635dd4147c1461005a5780636352211e1461009757806391cedd61146100d4578063bf225cb1146100f0578063d4e207a214610133578063f577a5001461015e575b600080fd5b34801561006657600080fd5b50610081600480360381019061007c9190610b1f565b61019b565b60405161008e9190610d8d565b60405180910390f35b3480156100a357600080fd5b506100be60048036038101906100b99190610ddb565b6103ec565b6040516100cb9190610e17565b60405180910390f35b6100ee60048036038101906100e99190610f67565b610429565b005b3480156100fc57600080fd5b5061011760048036038101906101129190610ddb565b610482565b60405161012a979695949392919061105a565b60405180910390f35b34801561013f57600080fd5b506101486106a1565b60405161015591906110d7565b60405180910390f35b34801561016a57600080fd5b5061018560048036038101906101809190610ddb565b6106a7565b60405161019291906110f2565b60405180910390f35b6060600460008373ffffffffffffffffffffffffffffffffffffffff1673ffffffffffffffffffffffffffffffffffffffff168152602001908152602001600020805480602002602001604051908101604052809291908181526020016000905b828210156103e157838290600052602060002090600702016040518060e0016040529081600082015481526020016001820160009054906101000a900473ffffffffffffffffffffffffffffffffffffffff1673ffffffffffffffffffffffffffffffffffffffff1673ffffffffffffffffffffffffffffffffffffffff16815260200160028201805461028f9061113c565b80601f01602080910402602001604051908101604052809291908181526020018280546102bb9061113c565b80156103085780601f106102dd57610100808354040283529160200191610308565b820191906000526020600020905b8154815290600101906020018083116102eb57829003601f168201915b505050505081526020016003820180546103219061113c565b80601f016020809104026020016040519081016040528092919081815260200182805461034d9061113c565b801561039a5780601f1061036f5761010080835404028352916020019161039a565b820191906000526020600020905b81548152906001019060200180831161037d57829003601f168201915b5050505050815260200160048201548152602001600582015481526020016006820160009054906101000a900460ff161515151581525050815260200190600101906101fc565b505050509050919050565b60006002600083815260200190815260200160002060009054906101000a900473ffffffffffffffffffffffffffffffffffffffff169050919050565b66470de4df8200003411610472576040517f08c379a0000000000000000000000000000000000000000000000000000000008152600401610469906111ba565b60405180910390fd5b61047d8383836106d9565b505050565b60008060608060008060006003600089815260200190815260200160002060010160009054906101000a900473ffffffffffffffffffffffffffffffffffffffff1696506002600089815260200190815260200160002060009054906101000a900473ffffffffffffffffffffffffffffffffffffffff16955060036000898152602001908152602001600020600201805461051d9061113c565b80601f01602080910402602001604051908101604052809291908181526020018280546105499061113c565b80156105965780601f1061056b57610100808354040283529160200191610596565b820191906000526020600020905b81548152906001019060200180831161057957829003601f168201915b505050505094506003600089815260200190815260200160002060030180546105be9061113c565b80601f01602080910402602001604051908101604052809291908181526020018280546105ea9061113c565b80156106375780601f1061060c57610100808354040283529160200191610637565b820191906000526020600020905b81548152906001019060200180831161061a57829003601f168201915b5050505050935060036000898152602001908152602001600020600401549250600360008981526020019081526020016000206005015491506003600089815260200190815260200160002060060160009054906101000a900460ff169050919395979092949650565b60015481565b6000806003600084815260200190815260200160002060060160009054906101000a900460ff16905080915050919050565b600160008154809291906106ec90611209565b919050555060006040518060e00160405280600154815260200160008054906101000a900473ffffffffffffffffffffffffffffffffffffffff1673ffffffffffffffffffffffffffffffffffffffff16815260200185815260200184815260200142815260200162eff100426107639190611252565b8152602001600115158152509050806003600060015481526020019081526020016000206000820151816000015560208201518160010160006101000a81548173ffffffffffffffffffffffffffffffffffffffff021916908373ffffffffffffffffffffffffffffffffffffffff16021790555060408201518160020190805190602001906107f4929190610a0a565b506060820151816003019080519060200190610811929190610a0a565b506080820151816004015560a0820151816005015560c08201518160060160006101000a81548160ff0219169083151502179055509050508160026000600154815260200190815260200160002060006101000a81548173ffffffffffffffffffffffffffffffffffffffff021916908373ffffffffffffffffffffffffffffffffffffffff160217905550600460008373ffffffffffffffffffffffffffffffffffffffff1673ffffffffffffffffffffffffffffffffffffffff1681526020019081526020016000208190806001815401808255809150506001900390600052602060002090600702016000909190919091506000820151816000015560208201518160010160006101000a81548173ffffffffffffffffffffffffffffffffffffffff021916908373ffffffffffffffffffffffffffffffffffffffff1602179055506040820151816002019080519060200190610973929190610a0a565b506060820151816003019080519060200190610990929190610a0a565b506080820151816004015560a0820151816005015560c08201518160060160006101000a81548160ff02191690831515021790555050507f35e0c9e90420dcbf74460b3115640f6a92c8d51029c8e01b920b638cf05691ee60015485856040516109fc939291906112a8565b60405180910390a150505050565b828054610a169061113c565b90600052602060002090601f016020900481019282610a385760008555610a7f565b82601f10610a5157805160ff1916838001178555610a7f565b82800160010185558215610a7f579182015b82811115610a7e578251825591602001919060010190610a63565b5b509050610a8c9190610a90565b5090565b5b80821115610aa9576000816000905550600101610a91565b5090565b6000604051905090565b600080fd5b600080fd5b600073ffffffffffffffffffffffffffffffffffffffff82169050919050565b6000610aec82610ac1565b9050919050565b610afc81610ae1565b8114610b0757600080fd5b50565b600081359050610b1981610af3565b92915050565b600060208284031215610b3557610b34610ab7565b5b6000610b4384828501610b0a565b91505092915050565b600081519050919050565b600082825260208201905092915050565b6000819050602082019050919050565b6000819050919050565b610b8b81610b78565b82525050565b610b9a81610ae1565b82525050565b600081519050919050565b600082825260208201905092915050565b60005b83811015610bda578082015181840152602081019050610bbf565b83811115610be9576000848401525b50505050565b6000601f19601f8301169050919050565b6000610c0b82610ba0565b610c158185610bab565b9350610c25818560208601610bbc565b610c2e81610bef565b840191505092915050565b60008115159050919050565b610c4e81610c39565b82525050565b600060e083016000830151610c6c6000860182610b82565b506020830151610c7f6020860182610b91565b5060408301518482036040860152610c978282610c00565b91505060608301518482036060860152610cb18282610c00565b9150506080830151610cc66080860182610b82565b5060a0830151610cd960a0860182610b82565b5060c0830151610cec60c0860182610c45565b508091505092915050565b6000610d038383610c54565b905092915050565b6000602082019050919050565b6000610d2382610b4c565b610d2d8185610b57565b935083602082028501610d3f85610b68565b8060005b85811015610d7b5784840389528151610d5c8582610cf7565b9450610d6783610d0b565b925060208a01995050600181019050610d43565b50829750879550505050505092915050565b60006020820190508181036000830152610da78184610d18565b905092915050565b610db881610b78565b8114610dc357600080fd5b50565b600081359050610dd581610daf565b92915050565b600060208284031215610df157610df0610ab7565b5b6000610dff84828501610dc6565b91505092915050565b610e1181610ae1565b82525050565b6000602082019050610e2c6000830184610e08565b92915050565b600080fd5b600080fd5b7f4e487b7100000000000000000000000000000000000000000000000000000000600052604160045260246000fd5b610e7482610bef565b810181811067ffffffffffffffff82111715610e9357610e92610e3c565b5b80604052505050565b6000610ea6610aad565b9050610eb28282610e6b565b919050565b600067ffffffffffffffff821115610ed257610ed1610e3c565b5b610edb82610bef565b9050602081019050919050565b82818337600083830152505050565b6000610f0a610f0584610eb7565b610e9c565b905082815260208101848484011115610f2657610f25610e37565b5b610f31848285610ee8565b509392505050565b600082601f830112610f4e57610f4d610e32565b5b8135610f5e848260208601610ef7565b91505092915050565b600080600060608486031215610f8057610f7f610ab7565b5b600084013567ffffffffffffffff811115610f9e57610f9d610abc565b5b610faa86828701610f39565b935050602084013567ffffffffffffffff811115610fcb57610fca610abc565b5b610fd786828701610f39565b9250506040610fe886828701610b0a565b9150509250925092565b600082825260208201905092915050565b600061100e82610ba0565b6110188185610ff2565b9350611028818560208601610bbc565b61103181610bef565b840191505092915050565b61104581610b78565b82525050565b61105481610c39565b82525050565b600060e08201905061106f600083018a610e08565b61107c6020830189610e08565b818103604083015261108e8188611003565b905081810360608301526110a28187611003565b90506110b1608083018661103c565b6110be60a083018561103c565b6110cb60c083018461104b565b98975050505050505050565b60006020820190506110ec600083018461103c565b92915050565b6000602082019050611107600083018461104b565b92915050565b7f4e487b7100000000000000000000000000000000000000000000000000000000600052602260045260246000fd5b6000600282049050600182168061115457607f821691505b602082108114156111685761116761110d565b5b50919050565b7f4e6f7420656e6f7567682045746865722e000000000000000000000000000000600082015250565b60006111a4601183610ff2565b91506111af8261116e565b602082019050919050565b600060208201905081810360008301526111d381611197565b9050919050565b7f4e487b7100000000000000000000000000000000000000000000000000000000600052601160045260246000fd5b600061121482610b78565b91507fffffffffffffffffffffffffffffffffffffffffffffffffffffffffffffffff821415611247576112466111da565b5b600182019050919050565b600061125d82610b78565b915061126883610b78565b9250827fffffffffffffffffffffffffffffffffffffffffffffffffffffffffffffffff0382111561129d5761129c6111da565b5b828201905092915050565b60006060820190506112bd600083018661103c565b81810360208301526112cf8185611003565b905081810360408301526112e38184611003565b905094935050505056fea2646970667358221220250ecb949a4784c307902fdb29ebe37a7bf30681a0d59bdb1982a7c11b703d8d64736f6c634300080b0033",
  "immutableReferences": {},
  "source": "// SPDX-License-Identifier: MIT\npragma solidity ^0.8.11;\n\n\n//simple contract that represents a certificate verification\ncontract VerifiedV3{\n    address owner;\n    uint public certCount = 0;\n\n    struct Cert{\n        uint id;\n        address issuer;\n        string itemName;\n        string itemDescription;\n        uint valid_start;\n        uint valid_end;\n        bool valid;\n    }\n\n    mapping(uint => address) certToOwner;\n    mapping(uint => Cert) certificates;\n    mapping(address => Cert[]) OwnerToCerts;\n\n    event certCreated(\n        uint id,\n        string itemName,\n        string itemDescription\n    );\n\n    modifier onlyOwner() {\n        require(msg.sender == owner);\n        _;\n    }\n\n    constructor() public{\n        owner = msg.sender;\n    }\n\n    function requestACert(string memory _itemName,\n                    string memory _itemDescription,\n                    address _to\n                    )\n                    external\n                    payable\n    {\n        require(msg.value > 0.02 ether, \"Not enough Ether.\");\n        addCert(_itemName, _itemDescription, _to);\n    }\n    \n\n    //create a new certificate \n    function addCert(string memory _itemName,\n                    string memory _itemDescription,\n                    address _to\n                    )\n                    private \n    {\n        certCount ++;\n        Cert memory newCert = Cert(certCount, owner, _itemName, _itemDescription, block.timestamp, block.timestamp +  (182 * 1 days), true); \n        certificates[certCount] = newCert;\n        certToOwner[certCount] = _to;\n        OwnerToCerts[_to].push(newCert);\n        emit certCreated(certCount, _itemName, _itemDescription);\n    }\n\n    function invalidate(uint256 _certId) private onlyOwner{\n        if(certificates[_certId].valid_end < block.timestamp){\n            certificates[_certId].valid = false;\n        }\n    }\n\n\n    //view a certificate\n    function getCertInfo(uint _id)\n        public\n        view\n        returns (address _issuer,\n                address _owner,\n                string memory _itemName,\n                string memory _itemDescription,\n                uint _valid_start,\n                uint _valid_end,\n                bool _valid)\n    {\n        _issuer = certificates[_id].issuer;\n        _owner = certToOwner[_id];\n        _itemName = certificates[_id].itemName;\n        _itemDescription = certificates[_id].itemDescription;\n        _valid_start = certificates[_id].valid_start;\n        _valid_end = certificates[_id].valid_end;\n        _valid = certificates[_id].valid;\n    }\n\n    function ownerOf(uint256 _certId) external view returns (address) {\n        return certToOwner[_certId];\n    }\n\n    function isValid(uint256 _certId) external view returns (bool) {\n        bool state = certificates[_certId].valid;\n        return state;\n    }\n\n    function getUserCerts(address _to) external view returns (Cert[] memory) {\n        return OwnerToCerts[_to];\n    }\n}",
  "sourcePath": "/home/jloesch30/git-repos/blockchain-demo-app/blockchain-demo/contracts/VerifiedV3.sol",
  "compiler": {
    "name": "solc",
    "version": "0.8.11+commit.d7f03943.Emscripten.clang"
  },
  "schemaVersion": "3.4.7",
  "updatedAt": "2022-05-02T15:45:08.056Z",
  "networkType": "ethereum",
  "devdoc": {
    "kind": "dev",
    "methods": {},
    "version": 1
  },
  "userdoc": {
    "kind": "user",
    "methods": {},
    "version": 1
  }
}