{
  "contractName": "Verified",
  "abi": [
    {
      "inputs": [],
      "stateMutability": "nonpayable",
      "type": "constructor"
    },
    {
      "anonymous": false,
      "inputs": [
        {
          "indexed": false,
          "internalType": "uint256",
          "name": "id",
          "type": "uint256"
        },
        {
          "indexed": false,
          "internalType": "string",
          "name": "itemName",
          "type": "string"
        },
        {
          "indexed": false,
          "internalType": "string",
          "name": "itemDescription",
          "type": "string"
        }
      ],
      "name": "certCreated",
      "type": "event"
    },
    {
      "inputs": [],
      "name": "certCount",
      "outputs": [
        {
          "internalType": "uint256",
          "name": "",
          "type": "uint256"
        }
      ],
      "stateMutability": "view",
      "type": "function"
    },
    {
      "inputs": [
        {
          "internalType": "string",
          "name": "_itemName",
          "type": "string"
        },
        {
          "internalType": "string",
          "name": "_itemDescription",
          "type": "string"
        },
        {
          "internalType": "address",
          "name": "_to",
          "type": "address"
        }
      ],
      "name": "requestACert",
      "outputs": [],
      "stateMutability": "payable",
      "type": "function"
    },
    {
      "inputs": [
        {
          "internalType": "uint256",
          "name": "_id",
          "type": "uint256"
        }
      ],
      "name": "getCertInfo",
      "outputs": [
        {
          "internalType": "address",
          "name": "_issuer",
          "type": "address"
        },
        {
          "internalType": "address",
          "name": "_owner",
          "type": "address"
        },
        {
          "internalType": "string",
          "name": "_itemName",
          "type": "string"
        },
        {
          "internalType": "string",
          "name": "_itemDescription",
          "type": "string"
        },
        {
          "internalType": "uint256",
          "name": "_valid_start",
          "type": "uint256"
        },
        {
          "internalType": "uint256",
          "name": "_valid_end",
          "type": "uint256"
        }
      ],
      "stateMutability": "view",
      "type": "function"
    },
    {
      "inputs": [
        {
          "internalType": "uint256",
          "name": "_certId",
          "type": "uint256"
        }
      ],
      "name": "ownerOf",
      "outputs": [
        {
          "internalType": "address",
          "name": "",
          "type": "address"
        }
      ],
      "stateMutability": "view",
      "type": "function"
    },
    {
      "inputs": [
        {
          "internalType": "uint256",
          "name": "_certId",
          "type": "uint256"
        }
      ],
      "name": "isValid",
      "outputs": [
        {
          "internalType": "bool",
          "name": "",
          "type": "bool"
        }
      ],
      "stateMutability": "view",
      "type": "function"
    }
  ],
  "bytecode": "0x6080604052600060015534801561001557600080fd5b50336000806101000a81548173ffffffffffffffffffffffffffffffffffffffff021916908373ffffffffffffffffffffffffffffffffffffffff160217905550610c66806100656000396000f3fe60806040526004361061004a5760003560e01c80636352211e1461004f57806391cedd611461008c578063bf225cb1146100a8578063d4e207a2146100ea578063f577a50014610115575b600080fd5b34801561005b57600080fd5b50610076600480360381019061007191906107a5565b610152565b6040516100839190610813565b60405180910390f35b6100a660048036038101906100a191906108bf565b61018f565b005b3480156100b457600080fd5b506100cf60048036038101906100ca91906107a5565b61023c565b6040516100e1969594939291906109fc565b60405180910390f35b3480156100f657600080fd5b506100ff610431565b60405161010c9190610a6b565b60405180910390f35b34801561012157600080fd5b5061013c600480360381019061013791906107a5565b610437565b6040516101499190610aa1565b60405180910390f35b60006002600083815260200190815260200160002060009054906101000a900473ffffffffffffffffffffffffffffffffffffffff169050919050565b66470de4df82000034116101a257600080fd5b61023585858080601f016020809104026020016040519081016040528093929190818152602001838380828437600081840152601f19601f8201169050808301925050505050505084848080601f016020809104026020016040519081016040528093929190818152602001838380828437600081840152601f19601f8201169050808301925050505050505083610469565b5050505050565b6000806060806000806003600088815260200190815260200160002060010160009054906101000a900473ffffffffffffffffffffffffffffffffffffffff1695506002600088815260200190815260200160002060009054906101000a900473ffffffffffffffffffffffffffffffffffffffff1694506003600088815260200190815260200160002060020180546102d590610aeb565b80601f016020809104026020016040519081016040528092919081815260200182805461030190610aeb565b801561034e5780601f106103235761010080835404028352916020019161034e565b820191906000526020600020905b81548152906001019060200180831161033157829003601f168201915b5050505050935060036000888152602001908152602001600020600301805461037690610aeb565b80601f01602080910402602001604051908101604052809291908181526020018280546103a290610aeb565b80156103ef5780601f106103c4576101008083540402835291602001916103ef565b820191906000526020600020905b8154815290600101906020018083116103d257829003601f168201915b50505050509250600360008881526020019081526020016000206004015491506003600088815260200190815260200160002060050154905091939550919395565b60015481565b6000806003600084815260200190815260200160002060060160009054906101000a900460ff16905080915050919050565b60008054906101000a900473ffffffffffffffffffffffffffffffffffffffff1673ffffffffffffffffffffffffffffffffffffffff163373ffffffffffffffffffffffffffffffffffffffff16146104c157600080fd5b600160008154809291906104d490610b4c565b91905055506040518060e00160405280600154815260200160008054906101000a900473ffffffffffffffffffffffffffffffffffffffff1673ffffffffffffffffffffffffffffffffffffffff16815260200184815260200183815260200142815260200162eff100426105499190610b95565b8152602001600115158152506003600060015481526020019081526020016000206000820151816000015560208201518160010160006101000a81548173ffffffffffffffffffffffffffffffffffffffff021916908373ffffffffffffffffffffffffffffffffffffffff16021790555060408201518160020190805190602001906105d79291906106c2565b5060608201518160030190805190602001906105f49291906106c2565b506080820151816004015560a0820151816005015560c08201518160060160006101000a81548160ff0219169083151502179055509050508060026000600154815260200190815260200160002060006101000a81548173ffffffffffffffffffffffffffffffffffffffff021916908373ffffffffffffffffffffffffffffffffffffffff1602179055507f35e0c9e90420dcbf74460b3115640f6a92c8d51029c8e01b920b638cf05691ee60015484846040516106b593929190610beb565b60405180910390a1505050565b8280546106ce90610aeb565b90600052602060002090601f0160209004810192826106f05760008555610737565b82601f1061070957805160ff1916838001178555610737565b82800160010185558215610737579182015b8281111561073657825182559160200191906001019061071b565b5b5090506107449190610748565b5090565b5b80821115610761576000816000905550600101610749565b5090565b600080fd5b600080fd5b6000819050919050565b6107828161076f565b811461078d57600080fd5b50565b60008135905061079f81610779565b92915050565b6000602082840312156107bb576107ba610765565b5b60006107c984828501610790565b91505092915050565b600073ffffffffffffffffffffffffffffffffffffffff82169050919050565b60006107fd826107d2565b9050919050565b61080d816107f2565b82525050565b60006020820190506108286000830184610804565b92915050565b600080fd5b600080fd5b600080fd5b60008083601f8401126108535761085261082e565b5b8235905067ffffffffffffffff8111156108705761086f610833565b5b60208301915083600182028301111561088c5761088b610838565b5b9250929050565b61089c816107f2565b81146108a757600080fd5b50565b6000813590506108b981610893565b92915050565b6000806000806000606086880312156108db576108da610765565b5b600086013567ffffffffffffffff8111156108f9576108f861076a565b5b6109058882890161083d565b9550955050602086013567ffffffffffffffff8111156109285761092761076a565b5b6109348882890161083d565b93509350506040610947888289016108aa565b9150509295509295909350565b600081519050919050565b600082825260208201905092915050565b60005b8381101561098e578082015181840152602081019050610973565b8381111561099d576000848401525b50505050565b6000601f19601f8301169050919050565b60006109bf82610954565b6109c9818561095f565b93506109d9818560208601610970565b6109e2816109a3565b840191505092915050565b6109f68161076f565b82525050565b600060c082019050610a116000830189610804565b610a1e6020830188610804565b8181036040830152610a3081876109b4565b90508181036060830152610a4481866109b4565b9050610a5360808301856109ed565b610a6060a08301846109ed565b979650505050505050565b6000602082019050610a8060008301846109ed565b92915050565b60008115159050919050565b610a9b81610a86565b82525050565b6000602082019050610ab66000830184610a92565b92915050565b7f4e487b7100000000000000000000000000000000000000000000000000000000600052602260045260246000fd5b60006002820490506001821680610b0357607f821691505b60208210811415610b1757610b16610abc565b5b50919050565b7f4e487b7100000000000000000000000000000000000000000000000000000000600052601160045260246000fd5b6000610b578261076f565b91507fffffffffffffffffffffffffffffffffffffffffffffffffffffffffffffffff821415610b8a57610b89610b1d565b5b600182019050919050565b6000610ba08261076f565b9150610bab8361076f565b9250827fffffffffffffffffffffffffffffffffffffffffffffffffffffffffffffffff03821115610be057610bdf610b1d565b5b828201905092915050565b6000606082019050610c0060008301866109ed565b8181036020830152610c1281856109b4565b90508181036040830152610c2681846109b4565b905094935050505056fea264697066735822122078756e376bf0e00ddcc5a45e96e913e3708a7cc35550165c09956b4d2b0f7a8a64736f6c634300080b0033",
  "immutableReferences": {},
  "source": "// SPDX-License-Identifier: MIT\npragma solidity ^0.8.11;\n\n\n//simple contract that represents a certificate\ncontract Verified{\n    address owner;\n    uint public certCount = 0;\n\n    struct Cert{\n        uint id;\n        address issuer;\n        string itemName;\n        string itemDescription;\n        uint valid_start;\n        uint valid_end;\n        bool valid;\n    }\n\n    mapping(uint => address) certToOwner;\n    mapping(uint => Cert) certificates;\n\n    event certCreated(\n        uint id,\n        string itemName,\n        string itemDescription\n    );\n\n    modifier onlyOwner() {\n        require(msg.sender == owner);\n        _;\n    }\n\n    constructor() public{\n        owner = msg.sender;\n    }\n\n    function requestACert(string calldata _itemName,\n                    string calldata _itemDescription,\n                    address _to\n                    )\n                    external\n                    payable\n    {\n        require(msg.value > 0.02 ether);\n        addCert(_itemName, _itemDescription, _to);\n    }\n    \n\n    //create a new certificate \n    function addCert(string memory _itemName,\n                    string memory _itemDescription,\n                    address _to\n                    )\n                    private \n                    onlyOwner\n    {\n        certCount ++;\n        certificates[certCount] = Cert(certCount, owner, _itemName, _itemDescription, block.timestamp, block.timestamp +  (182 * 1 days), true); \n        certToOwner[certCount] = _to;\n        emit certCreated(certCount, _itemName, _itemDescription);\n    }\n\n    function invalidate(uint256 _certId) private onlyOwner{\n        if(certificates[_certId].valid_end < block.timestamp){\n            certificates[_certId].valid = false;\n        }\n    }\n\n\n    //view a certificate\n    function getCertInfo(uint _id)\n        public\n        view\n        returns (address _issuer,\n                address _owner,\n                string memory _itemName,\n                string memory _itemDescription,\n                uint _valid_start,\n                uint _valid_end)\n    {\n        _issuer = certificates[_id].issuer;\n        _owner = certToOwner[_id];\n        _itemName = certificates[_id].itemName;\n        _itemDescription = certificates[_id].itemDescription;\n        _valid_start = certificates[_id].valid_start;\n        _valid_end = certificates[_id].valid_end;\n    }\n\n    function ownerOf(uint256 _certId) external view returns (address) {\n        return certToOwner[_certId];\n    }\n\n    function isValid(uint256 _certId) external view returns (bool) {\n        bool state = certificates[_certId].valid;\n        return state;\n    }\n\n}",
  "sourcePath": "/home/jloesch30/git-repos/blockchain-demo-app/blockchain-demo/contracts/Verified.sol",
  "compiler": {
    "name": "solc",
    "version": "0.8.11+commit.d7f03943.Emscripten.clang"
  },
  "schemaVersion": "3.4.7",
  "updatedAt": "2022-05-03T16:40:34.969Z",
  "devdoc": {
    "kind": "dev",
    "methods": {},
    "version": 1
  },
  "userdoc": {
    "kind": "user",
    "methods": {},
    "version": 1
  }
}