{
  "contractName": "VerifiedV2",
  "abi": [
    {
      "inputs": [],
      "stateMutability": "nonpayable",
      "type": "constructor"
    },
    {
      "anonymous": false,
      "inputs": [
        {
          "indexed": false,
          "internalType": "uint256",
          "name": "id",
          "type": "uint256"
        },
        {
          "indexed": false,
          "internalType": "string",
          "name": "itemName",
          "type": "string"
        },
        {
          "indexed": false,
          "internalType": "string",
          "name": "itemDescription",
          "type": "string"
        }
      ],
      "name": "certCreated",
      "type": "event"
    },
    {
      "inputs": [],
      "name": "certCount",
      "outputs": [
        {
          "internalType": "uint256",
          "name": "",
          "type": "uint256"
        }
      ],
      "stateMutability": "view",
      "type": "function"
    },
    {
      "inputs": [
        {
          "internalType": "string",
          "name": "_itemName",
          "type": "string"
        },
        {
          "internalType": "string",
          "name": "_itemDescription",
          "type": "string"
        },
        {
          "internalType": "address",
          "name": "_to",
          "type": "address"
        }
      ],
      "name": "requestACert",
      "outputs": [],
      "stateMutability": "payable",
      "type": "function"
    },
    {
      "inputs": [
        {
          "internalType": "uint256",
          "name": "_id",
          "type": "uint256"
        }
      ],
      "name": "getCertInfo",
      "outputs": [
        {
          "internalType": "address",
          "name": "_issuer",
          "type": "address"
        },
        {
          "internalType": "address",
          "name": "_owner",
          "type": "address"
        },
        {
          "internalType": "string",
          "name": "_itemName",
          "type": "string"
        },
        {
          "internalType": "string",
          "name": "_itemDescription",
          "type": "string"
        },
        {
          "internalType": "uint256",
          "name": "_valid_start",
          "type": "uint256"
        },
        {
          "internalType": "uint256",
          "name": "_valid_end",
          "type": "uint256"
        },
        {
          "internalType": "bool",
          "name": "_valid",
          "type": "bool"
        }
      ],
      "stateMutability": "view",
      "type": "function"
    },
    {
      "inputs": [
        {
          "internalType": "uint256",
          "name": "_certId",
          "type": "uint256"
        }
      ],
      "name": "ownerOf",
      "outputs": [
        {
          "internalType": "address",
          "name": "",
          "type": "address"
        }
      ],
      "stateMutability": "view",
      "type": "function"
    },
    {
      "inputs": [
        {
          "internalType": "uint256",
          "name": "_certId",
          "type": "uint256"
        }
      ],
      "name": "isValid",
      "outputs": [
        {
          "internalType": "bool",
          "name": "",
          "type": "bool"
        }
      ],
      "stateMutability": "view",
      "type": "function"
    },
    {
      "inputs": [
        {
          "internalType": "address",
          "name": "_to",
          "type": "address"
        }
      ],
      "name": "getUserCerts",
      "outputs": [
        {
          "components": [
            {
              "internalType": "uint256",
              "name": "id",
              "type": "uint256"
            },
            {
              "internalType": "address",
              "name": "issuer",
              "type": "address"
            },
            {
              "internalType": "string",
              "name": "itemName",
              "type": "string"
            },
            {
              "internalType": "string",
              "name": "itemDescription",
              "type": "string"
            },
            {
              "internalType": "uint256",
              "name": "valid_start",
              "type": "uint256"
            },
            {
              "internalType": "uint256",
              "name": "valid_end",
              "type": "uint256"
            },
            {
              "internalType": "bool",
              "name": "valid",
              "type": "bool"
            }
          ],
          "internalType": "struct VerifiedV2.Cert[]",
          "name": "",
          "type": "tuple[]"
        }
      ],
      "stateMutability": "view",
      "type": "function"
    }
  ],
  "bytecode": "0x6080604052600060015534801561001557600080fd5b50336000806101000a81548173ffffffffffffffffffffffffffffffffffffffff021916908373ffffffffffffffffffffffffffffffffffffffff16021790555061137b806100656000396000f3fe6080604052600436106100555760003560e01c80635dd4147c1461005a5780636352211e1461009757806391cedd61146100d4578063bf225cb1146100f0578063d4e207a214610133578063f577a5001461015e575b600080fd5b34801561006657600080fd5b50610081600480360381019061007c9190610b77565b61019b565b60405161008e9190610de5565b60405180910390f35b3480156100a357600080fd5b506100be60048036038101906100b99190610e33565b6103ec565b6040516100cb9190610e6f565b60405180910390f35b6100ee60048036038101906100e99190610fbf565b610429565b005b3480156100fc57600080fd5b5061011760048036038101906101129190610e33565b610482565b60405161012a97969594939291906110b2565b60405180910390f35b34801561013f57600080fd5b506101486106a1565b604051610155919061112f565b60405180910390f35b34801561016a57600080fd5b5061018560048036038101906101809190610e33565b6106a7565b604051610192919061114a565b60405180910390f35b6060600460008373ffffffffffffffffffffffffffffffffffffffff1673ffffffffffffffffffffffffffffffffffffffff168152602001908152602001600020805480602002602001604051908101604052809291908181526020016000905b828210156103e157838290600052602060002090600702016040518060e0016040529081600082015481526020016001820160009054906101000a900473ffffffffffffffffffffffffffffffffffffffff1673ffffffffffffffffffffffffffffffffffffffff1673ffffffffffffffffffffffffffffffffffffffff16815260200160028201805461028f90611194565b80601f01602080910402602001604051908101604052809291908181526020018280546102bb90611194565b80156103085780601f106102dd57610100808354040283529160200191610308565b820191906000526020600020905b8154815290600101906020018083116102eb57829003601f168201915b5050505050815260200160038201805461032190611194565b80601f016020809104026020016040519081016040528092919081815260200182805461034d90611194565b801561039a5780601f1061036f5761010080835404028352916020019161039a565b820191906000526020600020905b81548152906001019060200180831161037d57829003601f168201915b5050505050815260200160048201548152602001600582015481526020016006820160009054906101000a900460ff161515151581525050815260200190600101906101fc565b505050509050919050565b60006002600083815260200190815260200160002060009054906101000a900473ffffffffffffffffffffffffffffffffffffffff169050919050565b66470de4df8200003411610472576040517f08c379a000000000000000000000000000000000000000000000000000000000815260040161046990611212565b60405180910390fd5b61047d8383836106d9565b505050565b60008060608060008060006003600089815260200190815260200160002060010160009054906101000a900473ffffffffffffffffffffffffffffffffffffffff1696506002600089815260200190815260200160002060009054906101000a900473ffffffffffffffffffffffffffffffffffffffff16955060036000898152602001908152602001600020600201805461051d90611194565b80601f016020809104026020016040519081016040528092919081815260200182805461054990611194565b80156105965780601f1061056b57610100808354040283529160200191610596565b820191906000526020600020905b81548152906001019060200180831161057957829003601f168201915b505050505094506003600089815260200190815260200160002060030180546105be90611194565b80601f01602080910402602001604051908101604052809291908181526020018280546105ea90611194565b80156106375780601f1061060c57610100808354040283529160200191610637565b820191906000526020600020905b81548152906001019060200180831161061a57829003601f168201915b5050505050935060036000898152602001908152602001600020600401549250600360008981526020019081526020016000206005015491506003600089815260200190815260200160002060060160009054906101000a900460ff169050919395979092949650565b60015481565b6000806003600084815260200190815260200160002060060160009054906101000a900460ff16905080915050919050565b60008054906101000a900473ffffffffffffffffffffffffffffffffffffffff1673ffffffffffffffffffffffffffffffffffffffff163373ffffffffffffffffffffffffffffffffffffffff161461073157600080fd5b6001600081548092919061074490611261565b919050555060006040518060e00160405280600154815260200160008054906101000a900473ffffffffffffffffffffffffffffffffffffffff1673ffffffffffffffffffffffffffffffffffffffff16815260200185815260200184815260200142815260200162eff100426107bb91906112aa565b8152602001600115158152509050806003600060015481526020019081526020016000206000820151816000015560208201518160010160006101000a81548173ffffffffffffffffffffffffffffffffffffffff021916908373ffffffffffffffffffffffffffffffffffffffff160217905550604082015181600201908051906020019061084c929190610a62565b506060820151816003019080519060200190610869929190610a62565b506080820151816004015560a0820151816005015560c08201518160060160006101000a81548160ff0219169083151502179055509050508160026000600154815260200190815260200160002060006101000a81548173ffffffffffffffffffffffffffffffffffffffff021916908373ffffffffffffffffffffffffffffffffffffffff160217905550600460008373ffffffffffffffffffffffffffffffffffffffff1673ffffffffffffffffffffffffffffffffffffffff1681526020019081526020016000208190806001815401808255809150506001900390600052602060002090600702016000909190919091506000820151816000015560208201518160010160006101000a81548173ffffffffffffffffffffffffffffffffffffffff021916908373ffffffffffffffffffffffffffffffffffffffff16021790555060408201518160020190805190602001906109cb929190610a62565b5060608201518160030190805190602001906109e8929190610a62565b506080820151816004015560a0820151816005015560c08201518160060160006101000a81548160ff02191690831515021790555050507f35e0c9e90420dcbf74460b3115640f6a92c8d51029c8e01b920b638cf05691ee6001548585604051610a5493929190611300565b60405180910390a150505050565b828054610a6e90611194565b90600052602060002090601f016020900481019282610a905760008555610ad7565b82601f10610aa957805160ff1916838001178555610ad7565b82800160010185558215610ad7579182015b82811115610ad6578251825591602001919060010190610abb565b5b509050610ae49190610ae8565b5090565b5b80821115610b01576000816000905550600101610ae9565b5090565b6000604051905090565b600080fd5b600080fd5b600073ffffffffffffffffffffffffffffffffffffffff82169050919050565b6000610b4482610b19565b9050919050565b610b5481610b39565b8114610b5f57600080fd5b50565b600081359050610b7181610b4b565b92915050565b600060208284031215610b8d57610b8c610b0f565b5b6000610b9b84828501610b62565b91505092915050565b600081519050919050565b600082825260208201905092915050565b6000819050602082019050919050565b6000819050919050565b610be381610bd0565b82525050565b610bf281610b39565b82525050565b600081519050919050565b600082825260208201905092915050565b60005b83811015610c32578082015181840152602081019050610c17565b83811115610c41576000848401525b50505050565b6000601f19601f8301169050919050565b6000610c6382610bf8565b610c6d8185610c03565b9350610c7d818560208601610c14565b610c8681610c47565b840191505092915050565b60008115159050919050565b610ca681610c91565b82525050565b600060e083016000830151610cc46000860182610bda565b506020830151610cd76020860182610be9565b5060408301518482036040860152610cef8282610c58565b91505060608301518482036060860152610d098282610c58565b9150506080830151610d1e6080860182610bda565b5060a0830151610d3160a0860182610bda565b5060c0830151610d4460c0860182610c9d565b508091505092915050565b6000610d5b8383610cac565b905092915050565b6000602082019050919050565b6000610d7b82610ba4565b610d858185610baf565b935083602082028501610d9785610bc0565b8060005b85811015610dd35784840389528151610db48582610d4f565b9450610dbf83610d63565b925060208a01995050600181019050610d9b565b50829750879550505050505092915050565b60006020820190508181036000830152610dff8184610d70565b905092915050565b610e1081610bd0565b8114610e1b57600080fd5b50565b600081359050610e2d81610e07565b92915050565b600060208284031215610e4957610e48610b0f565b5b6000610e5784828501610e1e565b91505092915050565b610e6981610b39565b82525050565b6000602082019050610e846000830184610e60565b92915050565b600080fd5b600080fd5b7f4e487b7100000000000000000000000000000000000000000000000000000000600052604160045260246000fd5b610ecc82610c47565b810181811067ffffffffffffffff82111715610eeb57610eea610e94565b5b80604052505050565b6000610efe610b05565b9050610f0a8282610ec3565b919050565b600067ffffffffffffffff821115610f2a57610f29610e94565b5b610f3382610c47565b9050602081019050919050565b82818337600083830152505050565b6000610f62610f5d84610f0f565b610ef4565b905082815260208101848484011115610f7e57610f7d610e8f565b5b610f89848285610f40565b509392505050565b600082601f830112610fa657610fa5610e8a565b5b8135610fb6848260208601610f4f565b91505092915050565b600080600060608486031215610fd857610fd7610b0f565b5b600084013567ffffffffffffffff811115610ff657610ff5610b14565b5b61100286828701610f91565b935050602084013567ffffffffffffffff81111561102357611022610b14565b5b61102f86828701610f91565b925050604061104086828701610b62565b9150509250925092565b600082825260208201905092915050565b600061106682610bf8565b611070818561104a565b9350611080818560208601610c14565b61108981610c47565b840191505092915050565b61109d81610bd0565b82525050565b6110ac81610c91565b82525050565b600060e0820190506110c7600083018a610e60565b6110d46020830189610e60565b81810360408301526110e6818861105b565b905081810360608301526110fa818761105b565b90506111096080830186611094565b61111660a0830185611094565b61112360c08301846110a3565b98975050505050505050565b60006020820190506111446000830184611094565b92915050565b600060208201905061115f60008301846110a3565b92915050565b7f4e487b7100000000000000000000000000000000000000000000000000000000600052602260045260246000fd5b600060028204905060018216806111ac57607f821691505b602082108114156111c0576111bf611165565b5b50919050565b7f4e6f7420656e6f7567682045746865722e000000000000000000000000000000600082015250565b60006111fc60118361104a565b9150611207826111c6565b602082019050919050565b6000602082019050818103600083015261122b816111ef565b9050919050565b7f4e487b7100000000000000000000000000000000000000000000000000000000600052601160045260246000fd5b600061126c82610bd0565b91507fffffffffffffffffffffffffffffffffffffffffffffffffffffffffffffffff82141561129f5761129e611232565b5b600182019050919050565b60006112b582610bd0565b91506112c083610bd0565b9250827fffffffffffffffffffffffffffffffffffffffffffffffffffffffffffffffff038211156112f5576112f4611232565b5b828201905092915050565b60006060820190506113156000830186611094565b8181036020830152611327818561105b565b9050818103604083015261133b818461105b565b905094935050505056fea264697066735822122077ad3408b83d4681f093815d82d228d465ce577e1223b3ed544f9782ed5d599864736f6c634300080b0033",
  "immutableReferences": {},
  "source": "// SPDX-License-Identifier: MIT\npragma solidity ^0.8.11;\n\n\n//simple contract that represents a certificate verification\ncontract VerifiedV2{\n    address owner;\n    uint public certCount = 0;\n\n    struct Cert{\n        uint id;\n        address issuer;\n        string itemName;\n        string itemDescription;\n        uint valid_start;\n        uint valid_end;\n        bool valid;\n    }\n\n    mapping(uint => address) certToOwner;\n    mapping(uint => Cert) certificates;\n    mapping(address => Cert[]) OwnerToCerts;\n\n    event certCreated(\n        uint id,\n        string itemName,\n        string itemDescription\n    );\n\n    modifier onlyOwner() {\n        require(msg.sender == owner);\n        _;\n    }\n\n    constructor() public{\n        owner = msg.sender;\n    }\n\n    function requestACert(string memory _itemName,\n                    string memory _itemDescription,\n                    address _to\n                    )\n                    external\n                    payable\n    {\n        require(msg.value > 0.02 ether, \"Not enough Ether.\");\n        addCert(_itemName, _itemDescription, _to);\n    }\n    \n\n    //create a new certificate \n    function addCert(string memory _itemName,\n                    string memory _itemDescription,\n                    address _to\n                    )\n                    private \n                    onlyOwner\n    {\n        certCount ++;\n        Cert memory newCert = Cert(certCount, owner, _itemName, _itemDescription, block.timestamp, block.timestamp +  (182 * 1 days), true); \n        certificates[certCount] = newCert;\n        certToOwner[certCount] = _to;\n        OwnerToCerts[_to].push(newCert);\n        emit certCreated(certCount, _itemName, _itemDescription);\n    }\n\n    function invalidate(uint256 _certId) private onlyOwner{\n        if(certificates[_certId].valid_end < block.timestamp){\n            certificates[_certId].valid = false;\n        }\n    }\n\n\n    //view a certificate\n    function getCertInfo(uint _id)\n        public\n        view\n        returns (address _issuer,\n                address _owner,\n                string memory _itemName,\n                string memory _itemDescription,\n                uint _valid_start,\n                uint _valid_end,\n                bool _valid)\n    {\n        _issuer = certificates[_id].issuer;\n        _owner = certToOwner[_id];\n        _itemName = certificates[_id].itemName;\n        _itemDescription = certificates[_id].itemDescription;\n        _valid_start = certificates[_id].valid_start;\n        _valid_end = certificates[_id].valid_end;\n        _valid = certificates[_id].valid;\n    }\n\n    function ownerOf(uint256 _certId) external view returns (address) {\n        return certToOwner[_certId];\n    }\n\n    function isValid(uint256 _certId) external view returns (bool) {\n        bool state = certificates[_certId].valid;\n        return state;\n    }\n\n    function getUserCerts(address _to) external view returns (Cert[] memory) {\n        return OwnerToCerts[_to];\n    }\n}",
  "sourcePath": "/home/jloesch30/git-repos/blockchain-demo-app/blockchain-demo/contracts/VerifiedV2.sol",
  "compiler": {
    "name": "solc",
    "version": "0.8.11+commit.d7f03943.Emscripten.clang"
  },
  "schemaVersion": "3.4.7",
  "updatedAt": "2022-05-03T16:40:34.975Z",
  "devdoc": {
    "kind": "dev",
    "methods": {},
    "version": 1
  },
  "userdoc": {
    "kind": "user",
    "methods": {},
    "version": 1
  }
}